{
  "contractName": "GameContract",
  "abi": [
    {
      "inputs": [],
      "stateMutability": "nonpayable",
      "type": "constructor"
    },
    {
      "inputs": [],
      "name": "dealer",
      "outputs": [
        {
          "internalType": "address payable",
          "name": "",
          "type": "address"
        }
      ],
      "stateMutability": "view",
      "type": "function",
      "constant": true
    },
    {
      "inputs": [],
      "name": "gameEndTime",
      "outputs": [
        {
          "internalType": "uint256",
          "name": "",
          "type": "uint256"
        }
      ],
      "stateMutability": "view",
      "type": "function",
      "constant": true
    },
    {
      "inputs": [],
      "name": "playerCount",
      "outputs": [
        {
          "internalType": "uint256",
          "name": "",
          "type": "uint256"
        }
      ],
      "stateMutability": "view",
      "type": "function",
      "constant": true
    },
    {
      "inputs": [
        {
          "internalType": "address",
          "name": "",
          "type": "address"
        }
      ],
      "name": "players",
      "outputs": [
        {
          "internalType": "address",
          "name": "playerAddress",
          "type": "address"
        },
        {
          "internalType": "string",
          "name": "firstName",
          "type": "string"
        },
        {
          "internalType": "uint256",
          "name": "createdTime",
          "type": "uint256"
        },
        {
          "internalType": "uint256",
          "name": "score",
          "type": "uint256"
        }
      ],
      "stateMutability": "view",
      "type": "function",
      "constant": true
    },
    {
      "inputs": [
        {
          "internalType": "uint256",
          "name": "",
          "type": "uint256"
        }
      ],
      "name": "playersInGame",
      "outputs": [
        {
          "internalType": "address",
          "name": "playerAddress",
          "type": "address"
        },
        {
          "internalType": "string",
          "name": "firstName",
          "type": "string"
        },
        {
          "internalType": "uint256",
          "name": "createdTime",
          "type": "uint256"
        },
        {
          "internalType": "uint256",
          "name": "score",
          "type": "uint256"
        }
      ],
      "stateMutability": "view",
      "type": "function",
      "constant": true
    },
    {
      "inputs": [],
      "name": "pot",
      "outputs": [
        {
          "internalType": "uint256",
          "name": "",
          "type": "uint256"
        }
      ],
      "stateMutability": "view",
      "type": "function",
      "constant": true
    },
    {
      "inputs": [
        {
          "internalType": "string",
          "name": "firstName",
          "type": "string"
        }
      ],
      "name": "joinGame",
      "outputs": [],
      "stateMutability": "payable",
      "type": "function",
      "payable": true
    },
    {
      "inputs": [
        {
          "internalType": "address",
          "name": "winner1",
          "type": "address"
        },
        {
          "internalType": "address",
          "name": "winner2",
          "type": "address"
        },
        {
          "internalType": "address",
          "name": "winner3",
          "type": "address"
        }
      ],
      "name": "payOutWinners",
      "outputs": [],
      "stateMutability": "payable",
      "type": "function",
      "payable": true
    },
    {
      "inputs": [],
      "name": "getAddress",
      "outputs": [
        {
          "internalType": "string",
          "name": "",
          "type": "string"
        }
      ],
      "stateMutability": "view",
      "type": "function",
      "constant": true
    }
  ],
  "bytecode": "0x60806040526040518060400160405280600a81526020017f48656c6c6f2052616564000000000000000000000000000000000000000000008152506000908051906020019062000051929190620000c7565b50600060015560006002553480156200006957600080fd5b5033600460006101000a81548173ffffffffffffffffffffffffffffffffffffffff021916908373ffffffffffffffffffffffffffffffffffffffff16021790555061070842620000bb919062000177565b60038190555062000272565b828054620000d590620001de565b90600052602060002090601f016020900481019282620000f9576000855562000145565b82601f106200011457805160ff191683800117855562000145565b8280016001018555821562000145579182015b828111156200014457825182559160200191906001019062000127565b5b50905062000154919062000158565b5090565b5b808211156200017357600081600090555060010162000159565b5090565b60006200018482620001d4565b91506200019183620001d4565b9250827fffffffffffffffffffffffffffffffffffffffffffffffffffffffffffffffff03821115620001c957620001c862000214565b5b828201905092915050565b6000819050919050565b60006002820490506001821680620001f757607f821691505b602082108114156200020e576200020d62000243565b5b50919050565b7f4e487b7100000000000000000000000000000000000000000000000000000000600052601160045260246000fd5b7f4e487b7100000000000000000000000000000000000000000000000000000000600052602260045260246000fd5b6113c480620002826000396000f3fe6080604052600436106100865760003560e01c80634ba2363a116100595780634ba2363a1461012857806350965078146101535780639de2ee211461016f578063e2eb41ff1461019a578063f9593e14146101da57610086565b8063302bcc571461008b57806338cc4831146100b65780633d536a2e146100e157806344d9bc5f146100fd575b600080fd5b34801561009757600080fd5b506100a061021a565b6040516100ad9190610edc565b60405180910390f35b3480156100c257600080fd5b506100cb610220565b6040516100d89190610e3a565b60405180910390f35b6100fb60048036038101906100f69190610c6b565b6102b2565b005b34801561010957600080fd5b506101126103e9565b60405161011f9190610edc565b60405180910390f35b34801561013457600080fd5b5061013d6103ef565b60405161014a9190610edc565b60405180910390f35b61016d60048036038101906101689190610c18565b6103f5565b005b34801561017b57600080fd5b50610184610728565b6040516101919190610dd3565b60405180910390f35b3480156101a657600080fd5b506101c160048036038101906101bc9190610beb565b61074e565b6040516101d19493929190610dee565b60405180910390f35b3480156101e657600080fd5b5061020160048036038101906101fc9190610cb4565b610826565b6040516102119493929190610dee565b60405180910390f35b60015481565b60606000805461022f906110da565b80601f016020809104026020016040519081016040528092919081815260200182805461025b906110da565b80156102a85780601f1061027d576101008083540402835291602001916102a8565b820191906000526020600020905b81548152906001019060200180831161028b57829003601f168201915b5050505050905090565b6003544211156102f7576040517f08c379a00000000000000000000000000000000000000000000000000000000081526004016102ee90610e7c565b60405180910390fd5b6003544210156103e65768015af1d78b58c40000341461034c576040517f08c379a000000000000000000000000000000000000000000000000000000000815260040161034390610ebc565b60405180910390fd5b600460009054906101000a900473ffffffffffffffffffffffffffffffffffffffff1673ffffffffffffffffffffffffffffffffffffffff166108fc349081150290604051600060405180830381858888f19350505050156103e5576103b18161090e565b60018060008282546103c39190610f69565b925050819055506019600260008282546103dd9190610f69565b925050819055505b5b50565b60035481565b60025481565b600354421061072357600460009054906101000a900473ffffffffffffffffffffffffffffffffffffffff1673ffffffffffffffffffffffffffffffffffffffff163373ffffffffffffffffffffffffffffffffffffffff161461048e576040517f08c379a000000000000000000000000000000000000000000000000000000000815260040161048590610e5c565b60405180910390fd5b670de0b6b3a76400006002546104a49190610ff0565b34146104e5576040517f08c379a00000000000000000000000000000000000000000000000000000000081526004016104dc90610e9c565b60405180910390fd5b60006064603c346104f69190610ff0565b6105009190610fbf565b9050600060646014346105139190610ff0565b61051d9190610fbf565b905060006064600a346105309190610ff0565b61053a9190610fbf565b905060005b60058054905081101561071e5760006005828154811061056257610561611213565b5b906000526020600020906004020160000160009054906101000a900473ffffffffffffffffffffffffffffffffffffffff1690508773ffffffffffffffffffffffffffffffffffffffff168173ffffffffffffffffffffffffffffffffffffffff161415610612578073ffffffffffffffffffffffffffffffffffffffff166108fc869081150290604051600060405180830381858888f19350505050158015610610573d6000803e3d6000fd5b505b8673ffffffffffffffffffffffffffffffffffffffff168173ffffffffffffffffffffffffffffffffffffffff16141561068e578073ffffffffffffffffffffffffffffffffffffffff166108fc859081150290604051600060405180830381858888f1935050505015801561068c573d6000803e3d6000fd5b505b8573ffffffffffffffffffffffffffffffffffffffff168173ffffffffffffffffffffffffffffffffffffffff16141561070a578073ffffffffffffffffffffffffffffffffffffffff166108fc849081150290604051600060405180830381858888f19350505050158015610708573d6000803e3d6000fd5b505b5080806107169061113d565b91505061053f565b505050505b505050565b600460009054906101000a900473ffffffffffffffffffffffffffffffffffffffff1681565b60066020528060005260406000206000915090508060000160009054906101000a900473ffffffffffffffffffffffffffffffffffffffff1690806001018054610797906110da565b80601f01602080910402602001604051908101604052809291908181526020018280546107c3906110da565b80156108105780601f106107e557610100808354040283529160200191610810565b820191906000526020600020905b8154815290600101906020018083116107f357829003601f168201915b5050505050908060020154908060030154905084565b6005818154811061083657600080fd5b90600052602060002090600402016000915090508060000160009054906101000a900473ffffffffffffffffffffffffffffffffffffffff169080600101805461087f906110da565b80601f01602080910402602001604051908101604052809291908181526020018280546108ab906110da565b80156108f85780601f106108cd576101008083540402835291602001916108f8565b820191906000526020600020905b8154815290600101906020018083116108db57829003601f168201915b5050505050908060020154908060030154905084565b600060405180608001604052803373ffffffffffffffffffffffffffffffffffffffff16815260200183815260200142815260200134815250905080600660003373ffffffffffffffffffffffffffffffffffffffff1673ffffffffffffffffffffffffffffffffffffffff16815260200190815260200160002060008201518160000160006101000a81548173ffffffffffffffffffffffffffffffffffffffff021916908373ffffffffffffffffffffffffffffffffffffffff16021790555060208201518160010190805190602001906109ec929190610aae565b506040820151816002015560608201518160030155905050600581908060018154018082558091505060019003906000526020600020906004020160009091909190915060008201518160000160006101000a81548173ffffffffffffffffffffffffffffffffffffffff021916908373ffffffffffffffffffffffffffffffffffffffff1602179055506020820151816001019080519060200190610a93929190610aae565b50604082015181600201556060820151816003015550505050565b828054610aba906110da565b90600052602060002090601f016020900481019282610adc5760008555610b23565b82601f10610af557805160ff1916838001178555610b23565b82800160010185558215610b23579182015b82811115610b22578251825591602001919060010190610b07565b5b509050610b309190610b34565b5090565b5b80821115610b4d576000816000905550600101610b35565b5090565b6000610b64610b5f84610f1c565b610ef7565b905082815260208101848484011115610b8057610b7f611276565b5b610b8b848285611098565b509392505050565b600081359050610ba281611360565b92915050565b600082601f830112610bbd57610bbc611271565b5b8135610bcd848260208601610b51565b91505092915050565b600081359050610be581611377565b92915050565b600060208284031215610c0157610c00611280565b5b6000610c0f84828501610b93565b91505092915050565b600080600060608486031215610c3157610c30611280565b5b6000610c3f86828701610b93565b9350506020610c5086828701610b93565b9250506040610c6186828701610b93565b9150509250925092565b600060208284031215610c8157610c80611280565b5b600082013567ffffffffffffffff811115610c9f57610c9e61127b565b5b610cab84828501610ba8565b91505092915050565b600060208284031215610cca57610cc9611280565b5b6000610cd884828501610bd6565b91505092915050565b610cea8161105c565b82525050565b610cf98161104a565b82525050565b6000610d0a82610f4d565b610d148185610f58565b9350610d248185602086016110a7565b610d2d81611285565b840191505092915050565b6000610d45602983610f58565b9150610d5082611296565b604082019050919050565b6000610d68602083610f58565b9150610d73826112e5565b602082019050919050565b6000610d8b601283610f58565b9150610d968261130e565b602082019050919050565b6000610dae601b83610f58565b9150610db982611337565b602082019050919050565b610dcd8161108e565b82525050565b6000602082019050610de86000830184610ce1565b92915050565b6000608082019050610e036000830187610cf0565b8181036020830152610e158186610cff565b9050610e246040830185610dc4565b610e316060830184610dc4565b95945050505050565b60006020820190508181036000830152610e548184610cff565b905092915050565b60006020820190508181036000830152610e7581610d38565b9050919050565b60006020820190508181036000830152610e9581610d5b565b9050919050565b60006020820190508181036000830152610eb581610d7e565b9050919050565b60006020820190508181036000830152610ed581610da1565b9050919050565b6000602082019050610ef16000830184610dc4565b92915050565b6000610f01610f12565b9050610f0d828261110c565b919050565b6000604051905090565b600067ffffffffffffffff821115610f3757610f36611242565b5b610f4082611285565b9050602081019050919050565b600081519050919050565b600082825260208201905092915050565b6000610f748261108e565b9150610f7f8361108e565b9250827fffffffffffffffffffffffffffffffffffffffffffffffffffffffffffffffff03821115610fb457610fb3611186565b5b828201905092915050565b6000610fca8261108e565b9150610fd58361108e565b925082610fe557610fe46111b5565b5b828204905092915050565b6000610ffb8261108e565b91506110068361108e565b9250817fffffffffffffffffffffffffffffffffffffffffffffffffffffffffffffffff048311821515161561103f5761103e611186565b5b828202905092915050565b60006110558261106e565b9050919050565b60006110678261106e565b9050919050565b600073ffffffffffffffffffffffffffffffffffffffff82169050919050565b6000819050919050565b82818337600083830152505050565b60005b838110156110c55780820151818401526020810190506110aa565b838111156110d4576000848401525b50505050565b600060028204905060018216806110f257607f821691505b60208210811415611106576111056111e4565b5b50919050565b61111582611285565b810181811067ffffffffffffffff8211171561113457611133611242565b5b80604052505050565b60006111488261108e565b91507fffffffffffffffffffffffffffffffffffffffffffffffffffffffffffffffff82141561117b5761117a611186565b5b600182019050919050565b7f4e487b7100000000000000000000000000000000000000000000000000000000600052601160045260246000fd5b7f4e487b7100000000000000000000000000000000000000000000000000000000600052601260045260246000fd5b7f4e487b7100000000000000000000000000000000000000000000000000000000600052602260045260246000fd5b7f4e487b7100000000000000000000000000000000000000000000000000000000600052603260045260246000fd5b7f4e487b7100000000000000000000000000000000000000000000000000000000600052604160045260246000fd5b600080fd5b600080fd5b600080fd5b600080fd5b6000601f19601f8301169050919050565b7f204f6e6c7920746865206465616c65722063616e20706179206f75742074686560008201527f2077696e6e6572732e0000000000000000000000000000000000000000000000602082015250565b7f54686973206368616c6c656e67652068617320616c726561647920656e646564600082015250565b7f56616c75652069736e277420656e6f7567680000000000000000000000000000600082015250565b7f546865206a6f696e696e67204665652069732032352065746865720000000000600082015250565b6113698161104a565b811461137457600080fd5b50565b6113808161108e565b811461138b57600080fd5b5056fea2646970667358221220b9f93d450b50dffdc60b7d9878c4b994f57c568e8faf07197d2c476c3313a57e64736f6c63430008060033",
  "immutableReferences": {},
  "source": "// SPDX-License-Identifier: MIT\npragma solidity >=0.8.6 <0.9.0;\n\ncontract GameContract{\n    \n    string test = \"Hello Raed\";\n    uint public playerCount = 0;\n    uint public pot = 0;\n    uint public gameEndTime;\n    \n    address payable public  dealer;\n    \n    Player[] public playersInGame;\n    \n    mapping(address => Player) public players;\n    \n    struct Player {\n        address playerAddress;\n        string firstName;\n        uint createdTime;\n        uint score;\n    }\n    \n    constructor() {\n        dealer = payable(address(msg.sender));\n        gameEndTime = block.timestamp + 1800;\n    }\n    \n    function addPlayer(string memory firstName) private {\n        Player memory newPlayer = Player(msg.sender, firstName, block.timestamp,msg.value);\n        players[msg.sender] = newPlayer;\n        playersInGame.push(newPlayer);\n    }\n\n    \n    function joinGame(string memory firstName) payable public{\n        if(block.timestamp > gameEndTime){\n            revert(\"This challenge has already ended\");\n        }\n        if(block.timestamp < gameEndTime){\n            require(msg.value == 25 ether, \"The joining Fee is 25 ether\");\n            if (dealer.send(msg.value)){\n                addPlayer(firstName);\n                playerCount += 1;\n                pot += 25;\n            }\n        }\n        \n    }\n    \n    function payOutWinners(address winner1,address winner2, address winner3) payable public {\n        \n        if(block.timestamp >= gameEndTime){\n            require(msg.sender == dealer, \" Only the dealer can pay out the winners.\");\n            require(msg.value == pot * (1 ether), \"Value isn't enough\");\n            uint payoutPerWinner1 = msg.value * 60 /100;\n            uint payoutPerWinner2 = msg.value * 20/100;\n            uint payoutPerWinner3 = msg.value * 10/100;\n        \n            for (uint i=0;i<playersInGame.length;i++){\n                address payable currentPlayerAddress = payable(address(playersInGame[i].playerAddress));\n                \n                if(currentPlayerAddress == winner1){\n                    currentPlayerAddress.transfer(payoutPerWinner1);\n                }\n                if(currentPlayerAddress == winner2){\n                    currentPlayerAddress.transfer(payoutPerWinner2);\n                }\n                if(currentPlayerAddress == winner3){\n                    currentPlayerAddress.transfer(payoutPerWinner3);\n                }\n            }\n        }\n        \n        \n    }\n    \n    function getAddress() public view returns(string memory){\n        return test;\n    }\n}",
  "sourcePath": "/home/raed_sh/Desktop/flappy/contracts/GameContract.sol",
  "compiler": {
    "name": "solc",
    "version": "0.8.6+commit.11564f7e.Emscripten.clang"
  },
  "schemaVersion": "3.4.2",
  "updatedAt": "2021-08-10T14:37:04.298Z",
  "networkType": "ethereum",
  "devdoc": {
    "kind": "dev",
    "methods": {},
    "version": 1
  },
  "userdoc": {
    "kind": "user",
    "methods": {},
    "version": 1
  }
}